:100000000C945C000C946E000C946E000C946E00CA
:100010000C946E000C946E000C946E000C946E00A8
:100020000C946E000C946E000C946E000C946E0098
:100030000C946E000C946E000C946E000C946E0088
:100040000C946E010C946E000C946E000C946E0077
:100050000C946E000C946E000C946E000C946E0068
:100060000C946E000C946E00000000002400270029
:100070002A0000000000250028002B0004040404CE
:100080000404040402020202020203030303030342
:10009000010204081020408001020408102001021F
:1000A00004081020000000080002010000030407FB
:1000B000000000000000000011241FBECFEFD8E0B8
:1000C000DEBFCDBF21E0A0E0B1E001C01D92A131B3
:1000D000B207E1F70E94B8010C9446020C940000AC
:1000E0008E3008F08E508770806480937C00809101
:1000F0007A00806480937A0080917A0086FDFCCF3C
:10010000809178002091790090E0922B089590E002
:10011000FC01EC55FF4F3491FC01E057FF4F249157
:10012000FC01E458FF4FE491EE2309F43BC0332374
:1001300039F1333091F038F43130A9F0323001F533
:1001400084B58F7D12C0373091F03830A1F0343053
:10015000B9F4809180008F7D03C0809180008F77FB
:10016000809380000DC084B58F7784BD09C08091D5
:10017000B0008F7703C08091B0008F7D8093B00076
:10018000F0E0EE0FFF1FEE58FF4FA591B4918FB72F
:10019000F894EC91611103C020952E2301C02E2B01
:1001A0002C938FBF0895CF93DF9390E0FC01E0572D
:1001B000FF4F2491FC01E458FF4F8491882361F1A3
:1001C00090E0880F991FFC01E859FF4FC591D49129
:1001D000FC01EE58FF4FA591B491611109C09FB782
:1001E000F8948881209582238883EC912E230BC07C
:1001F000623061F49FB7F8943881822F8095832311
:100200008883EC912E2B2C939FBF06C08FB7F89458
:10021000E8812E2B28838FBFDF91CF9108951F9304
:10022000CF93DF93182FEB0161E00E94D30020975A
:1002300011F460E004C0CF3FD10539F461E0812FB3
:10024000DF91CF911F910C948700E12FF0E0EC55E6
:10025000FF4FE491E330F9F048F4E130B9F0E230D7
:10026000A1F584B5806284BDC8BD34C0E730E9F033
:10027000E83019F1E43049F5809180008062809384
:100280008000D0938B00C0938A0024C084B580681E
:1002900084BDC7BD1FC080918000806880938000AE
:1002A000D0938900C093880015C08091B000806809
:1002B0008093B000C093B3000DC08091B000806205
:1002C0008093B000C093B40005C0C038D1050CF0D5
:1002D000B5CFAFCFDF91CF911F9108951F920F92AD
:1002E0000FB60F9211242F933F938F939F93AF9349
:1002F000BF9380910D0190910E01A0910F01B091DB
:10030000100130910C0123E0230F2D3720F40196CA
:10031000A11DB11D05C026E8230F0296A11DB11D28
:1003200020930C0180930D0190930E01A0930F0177
:10033000B09310018091080190910901A0910A01E8
:10034000B0910B010196A11DB11D809308019093FE
:100350000901A0930A01B0930B01BF91AF919F9146
:100360008F913F912F910F900FBE0F901F90189576
:10037000789484B5826084BD84B5816084BD85B580
:10038000826085BD85B5816085BD80916E0081608C
:1003900080936E0010928100809181008260809332
:1003A0008100809181008160809381008091800034
:1003B0008160809380008091B10084608093B1005F
:1003C0008091B00081608093B00080917A00846059
:1003D00080937A0080917A00826080937A00809185
:1003E0007A00816080937A0080917A00806880939F
:1003F0007A001092C10060E08FE00E94D30060E0BC
:1004000080E10E94D30061E083E00E94D30061E0BC
:1004100085E00E94D30080E0C82E80E0D82E9FE7C0
:10042000E92EF12C8FE00E947000EC0190930701FF
:100430008093060180E10E9470008C019093050179
:1004400080930401609102017091030183E00E9496
:100450000F01609100017091010185E00E940F0180
:100460000C171D070CF4FFCFC017D1070CF4FFCFFA
:10047000F0920301E0920201F0920101E09200018A
:10048000C114D10479F20E940000CCCFF894FFCFC0
:00000001FF
